{
  "_format": "hh-sol-artifact-1",
  "contractName": "ERC20StakingRewardsDistribution",
  "sourceName": "contracts/ERC20StakingRewardsDistribution.sol",
  "abi": [
    {
      "anonymous": false,
      "inputs": [],
      "name": "Canceled",
      "type": "event"
    },
    {
      "anonymous": false,
      "inputs": [
        {
          "indexed": true,
          "internalType": "address",
          "name": "claimer",
          "type": "address"
        },
        {
          "indexed": false,
          "internalType": "uint256[]",
          "name": "amounts",
          "type": "uint256[]"
        }
      ],
      "name": "Claimed",
      "type": "event"
    },
    {
      "anonymous": false,
      "inputs": [
        {
          "indexed": false,
          "internalType": "address[]",
          "name": "rewardsTokenAddresses",
          "type": "address[]"
        },
        {
          "indexed": false,
          "internalType": "address",
          "name": "stakableTokenAddress",
          "type": "address"
        },
        {
          "indexed": false,
          "internalType": "uint256[]",
          "name": "rewardsAmounts",
          "type": "uint256[]"
        },
        {
          "indexed": false,
          "internalType": "uint64",
          "name": "startingTimestamp",
          "type": "uint64"
        },
        {
          "indexed": false,
          "internalType": "uint64",
          "name": "endingTimestamp",
          "type": "uint64"
        },
        {
          "indexed": false,
          "internalType": "bool",
          "name": "locked",
          "type": "bool"
        },
        {
          "indexed": false,
          "internalType": "uint256",
          "name": "stakingCap",
          "type": "uint256"
        }
      ],
      "name": "Initialized",
      "type": "event"
    },
    {
      "anonymous": false,
      "inputs": [
        {
          "indexed": true,
          "internalType": "address",
          "name": "previousOwner",
          "type": "address"
        },
        {
          "indexed": true,
          "internalType": "address",
          "name": "newOwner",
          "type": "address"
        }
      ],
      "name": "OwnershipTransferred",
      "type": "event"
    },
    {
      "anonymous": false,
      "inputs": [
        {
          "indexed": false,
          "internalType": "uint256[]",
          "name": "amounts",
          "type": "uint256[]"
        }
      ],
      "name": "Recovered",
      "type": "event"
    },
    {
      "anonymous": false,
      "inputs": [
        {
          "indexed": true,
          "internalType": "address",
          "name": "staker",
          "type": "address"
        },
        {
          "indexed": false,
          "internalType": "uint256",
          "name": "amount",
          "type": "uint256"
        }
      ],
      "name": "Staked",
      "type": "event"
    },
    {
      "anonymous": false,
      "inputs": [
        {
          "indexed": false,
          "internalType": "uint256[]",
          "name": "amounts",
          "type": "uint256[]"
        }
      ],
      "name": "UpdatedRewards",
      "type": "event"
    },
    {
      "anonymous": false,
      "inputs": [
        {
          "indexed": true,
          "internalType": "address",
          "name": "withdrawer",
          "type": "address"
        },
        {
          "indexed": false,
          "internalType": "uint256",
          "name": "amount",
          "type": "uint256"
        }
      ],
      "name": "Withdrawn",
      "type": "event"
    },
    {
      "inputs": [
        {
          "internalType": "address",
          "name": "_token",
          "type": "address"
        },
        {
          "internalType": "uint256",
          "name": "_amount",
          "type": "uint256"
        }
      ],
      "name": "addRewards",
      "outputs": [],
      "stateMutability": "nonpayable",
      "type": "function"
    },
    {
      "inputs": [],
      "name": "cancel",
      "outputs": [],
      "stateMutability": "nonpayable",
      "type": "function"
    },
    {
      "inputs": [],
      "name": "canceled",
      "outputs": [
        {
          "internalType": "bool",
          "name": "",
          "type": "bool"
        }
      ],
      "stateMutability": "view",
      "type": "function"
    },
    {
      "inputs": [
        {
          "internalType": "uint256[]",
          "name": "_amounts",
          "type": "uint256[]"
        },
        {
          "internalType": "address",
          "name": "_recipient",
          "type": "address"
        }
      ],
      "name": "claim",
      "outputs": [],
      "stateMutability": "nonpayable",
      "type": "function"
    },
    {
      "inputs": [
        {
          "internalType": "address",
          "name": "_recipient",
          "type": "address"
        }
      ],
      "name": "claimAll",
      "outputs": [],
      "stateMutability": "nonpayable",
      "type": "function"
    },
    {
      "inputs": [
        {
          "internalType": "address",
          "name": "_account",
          "type": "address"
        }
      ],
      "name": "claimableRewards",
      "outputs": [
        {
          "internalType": "uint256[]",
          "name": "",
          "type": "uint256[]"
        }
      ],
      "stateMutability": "view",
      "type": "function"
    },
    {
      "inputs": [
        {
          "internalType": "address",
          "name": "_staker",
          "type": "address"
        }
      ],
      "name": "earnedRewardsOf",
      "outputs": [
        {
          "internalType": "uint256[]",
          "name": "",
          "type": "uint256[]"
        }
      ],
      "stateMutability": "view",
      "type": "function"
    },
    {
      "inputs": [],
      "name": "endingTimestamp",
      "outputs": [
        {
          "internalType": "uint64",
          "name": "",
          "type": "uint64"
        }
      ],
      "stateMutability": "view",
      "type": "function"
    },
    {
      "inputs": [
        {
          "internalType": "address",
          "name": "_recipient",
          "type": "address"
        }
      ],
      "name": "exit",
      "outputs": [],
      "stateMutability": "nonpayable",
      "type": "function"
    },
    {
      "inputs": [],
      "name": "factory",
      "outputs": [
        {
          "internalType": "address",
          "name": "",
          "type": "address"
        }
      ],
      "stateMutability": "view",
      "type": "function"
    },
    {
      "inputs": [
        {
          "internalType": "address",
          "name": "_claimer",
          "type": "address"
        }
      ],
      "name": "getClaimedRewards",
      "outputs": [
        {
          "internalType": "uint256[]",
          "name": "",
          "type": "uint256[]"
        }
      ],
      "stateMutability": "view",
      "type": "function"
    },
    {
      "inputs": [],
      "name": "getRewardTokens",
      "outputs": [
        {
          "internalType": "address[]",
          "name": "",
          "type": "address[]"
        }
      ],
      "stateMutability": "view",
      "type": "function"
    },
    {
      "inputs": [
        {
          "internalType": "address[]",
          "name": "_rewardTokenAddresses",
          "type": "address[]"
        },
        {
          "internalType": "address",
          "name": "_stakableTokenAddress",
          "type": "address"
        },
        {
          "internalType": "uint256[]",
          "name": "_rewardAmounts",
          "type": "uint256[]"
        },
        {
          "internalType": "uint64",
          "name": "_startingTimestamp",
          "type": "uint64"
        },
        {
          "internalType": "uint64",
          "name": "_endingTimestamp",
          "type": "uint64"
        },
        {
          "internalType": "bool",
          "name": "_locked",
          "type": "bool"
        },
        {
          "internalType": "uint256",
          "name": "_stakingCap",
          "type": "uint256"
        }
      ],
      "name": "initialize",
      "outputs": [],
      "stateMutability": "nonpayable",
      "type": "function"
    },
    {
      "inputs": [],
      "name": "initialized",
      "outputs": [
        {
          "internalType": "bool",
          "name": "",
          "type": "bool"
        }
      ],
      "stateMutability": "view",
      "type": "function"
    },
    {
      "inputs": [],
      "name": "lastConsolidationTimestamp",
      "outputs": [
        {
          "internalType": "uint64",
          "name": "",
          "type": "uint64"
        }
      ],
      "stateMutability": "view",
      "type": "function"
    },
    {
      "inputs": [],
      "name": "locked",
      "outputs": [
        {
          "internalType": "bool",
          "name": "",
          "type": "bool"
        }
      ],
      "stateMutability": "view",
      "type": "function"
    },
    {
      "inputs": [],
      "name": "owner",
      "outputs": [
        {
          "internalType": "address",
          "name": "",
          "type": "address"
        }
      ],
      "stateMutability": "view",
      "type": "function"
    },
    {
      "inputs": [],
      "name": "recoverUnassignedRewards",
      "outputs": [],
      "stateMutability": "nonpayable",
      "type": "function"
    },
    {
      "inputs": [
        {
          "internalType": "address",
          "name": "_rewardToken",
          "type": "address"
        }
      ],
      "name": "recoverableUnassignedReward",
      "outputs": [
        {
          "internalType": "uint256",
          "name": "",
          "type": "uint256"
        }
      ],
      "stateMutability": "view",
      "type": "function"
    },
    {
      "inputs": [],
      "name": "renounceOwnership",
      "outputs": [],
      "stateMutability": "nonpayable",
      "type": "function"
    },
    {
      "inputs": [
        {
          "internalType": "address",
          "name": "_rewardToken",
          "type": "address"
        }
      ],
      "name": "rewardAmount",
      "outputs": [
        {
          "internalType": "uint256",
          "name": "",
          "type": "uint256"
        }
      ],
      "stateMutability": "view",
      "type": "function"
    },
    {
      "inputs": [
        {
          "internalType": "uint256",
          "name": "",
          "type": "uint256"
        }
      ],
      "name": "rewards",
      "outputs": [
        {
          "internalType": "address",
          "name": "token",
          "type": "address"
        },
        {
          "internalType": "uint256",
          "name": "amount",
          "type": "uint256"
        },
        {
          "internalType": "uint256",
          "name": "toBeRewarded",
          "type": "uint256"
        },
        {
          "internalType": "uint256",
          "name": "perStakedToken",
          "type": "uint256"
        },
        {
          "internalType": "uint256",
          "name": "recoverableAmount",
          "type": "uint256"
        },
        {
          "internalType": "uint256",
          "name": "claimed",
          "type": "uint256"
        }
      ],
      "stateMutability": "view",
      "type": "function"
    },
    {
      "inputs": [],
      "name": "secondsDuration",
      "outputs": [
        {
          "internalType": "uint64",
          "name": "",
          "type": "uint64"
        }
      ],
      "stateMutability": "view",
      "type": "function"
    },
    {
      "inputs": [],
      "name": "stakableToken",
      "outputs": [
        {
          "internalType": "contract IERC20",
          "name": "",
          "type": "address"
        }
      ],
      "stateMutability": "view",
      "type": "function"
    },
    {
      "inputs": [
        {
          "internalType": "uint256",
          "name": "_amount",
          "type": "uint256"
        }
      ],
      "name": "stake",
      "outputs": [],
      "stateMutability": "nonpayable",
      "type": "function"
    },
    {
      "inputs": [
        {
          "internalType": "address",
          "name": "_staker",
          "type": "address"
        }
      ],
      "name": "stakedTokensOf",
      "outputs": [
        {
          "internalType": "uint256",
          "name": "",
          "type": "uint256"
        }
      ],
      "stateMutability": "view",
      "type": "function"
    },
    {
      "inputs": [
        {
          "internalType": "address",
          "name": "",
          "type": "address"
        }
      ],
      "name": "stakers",
      "outputs": [
        {
          "internalType": "uint256",
          "name": "stake",
          "type": "uint256"
        }
      ],
      "stateMutability": "view",
      "type": "function"
    },
    {
      "inputs": [],
      "name": "stakingCap",
      "outputs": [
        {
          "internalType": "uint256",
          "name": "",
          "type": "uint256"
        }
      ],
      "stateMutability": "view",
      "type": "function"
    },
    {
      "inputs": [],
      "name": "startingTimestamp",
      "outputs": [
        {
          "internalType": "uint64",
          "name": "",
          "type": "uint64"
        }
      ],
      "stateMutability": "view",
      "type": "function"
    },
    {
      "inputs": [],
      "name": "totalStakedTokensAmount",
      "outputs": [
        {
          "internalType": "uint256",
          "name": "",
          "type": "uint256"
        }
      ],
      "stateMutability": "view",
      "type": "function"
    },
    {
      "inputs": [
        {
          "internalType": "address",
          "name": "_newOwner",
          "type": "address"
        }
      ],
      "name": "transferOwnership",
      "outputs": [],
      "stateMutability": "nonpayable",
      "type": "function"
    },
    {
      "inputs": [
        {
          "internalType": "uint256",
          "name": "_amount",
          "type": "uint256"
        }
      ],
      "name": "withdraw",
      "outputs": [],
      "stateMutability": "nonpayable",
      "type": "function"
    }
  ],
  "bytecode": "0x608060405234801561001057600080fd5b50612e50806100206000396000f3fe608060405234801561001057600080fd5b50600436106101f05760003560e01c80639322776e1161010f578063c45a0155116100a2578063e644067d11610071578063e644067d14610489578063ea8a1af014610491578063f2fde38b14610499578063f301af42146104ac57600080fd5b8063c45a01551461043a578063c4f59f9b1461044d578063cf30901214610462578063dc01f60d1461047657600080fd5b8063b41fa979116100de578063b41fa979146103f1578063b42652e9146103fa578063b9e35db01461040d578063c10de3001461042057600080fd5b80639322776e14610382578063a694fc3a146103a2578063a9fc507b146103b5578063ab08d4fc146103c857600080fd5b80635fa3502311610187578063887862721161015657806388786272146103295780638c574b481461033c5780638da5cb5b1461034f5780639168ae721461036257600080fd5b80635fa35023146102e1578063645a8a56146102fb578063715018a61461030e57806377329f351461031657600080fd5b80633b34ee50116101c35780633b34ee50146102715780633f9942ff1461029257806344c370d3146102a65780635e5294b7146102af57600080fd5b8063158ef93e146101f55780631c96c3fb1461021e57806323a26e36146102495780632e1a7d4d1461025e575b600080fd5b60055461020990600160b01b900460ff1681565b60405190151581526020015b60405180910390f35b600354610231906001600160a01b031681565b6040516001600160a01b039091168152602001610215565b61025c610257366004612917565b6104f6565b005b61025c61026c366004612ac2565b6109e0565b61028461027f3660046128d4565b610b9c565b604051908152602001610215565b60055461020990600160a81b900460ff1681565b61028460075481565b6002546102c990600160401b90046001600160401b031681565b6040516001600160401b039091168152602001610215565b6002546102c990600160801b90046001600160401b031681565b6102846103093660046128d4565b610cd5565b61025c610d4b565b61025c6103243660046128d4565b610db4565b6002546102c9906001600160401b031681565b61025c61034a3660046129d5565b61100d565b600454610231906001600160a01b031681565b6102846103703660046128d4565b60016020526000908152604090205481565b6103956103903660046128d4565b611306565b6040516102159190612c36565b61025c6103b0366004612ac2565b61141c565b61025c6103c33660046128ee565b61167f565b6102846103d63660046128d4565b6001600160a01b031660009081526001602052604090205490565b61028460065481565b61025c6104083660046128d4565b611856565b61039561041b3660046128d4565b6118d1565b6002546102c990600160c01b90046001600160401b031681565b600554610231906001600160a01b031681565b6104556119e2565b6040516102159190612be9565b60055461020990600160a01b900460ff1681565b6103956104843660046128d4565b611ad8565b61025c611d8b565b61025c61203c565b61025c6104a73660046128d4565b61222e565b6104bf6104ba366004612ac2565b6122f2565b604080516001600160a01b0390971687526020870195909552938501929092526060840152608083015260a082015260c001610215565b600554600160b01b900460ff161561053d5760405162461bcd60e51b81526020600482015260056024820152640a6a48862760db1b60448201526064015b60405180910390fd5b42846001600160401b03161161057d5760405162461bcd60e51b8152602060048201526005602482015264535244303160d81b6044820152606401610534565b836001600160401b0316836001600160401b0316116105c65760405162461bcd60e51b815260206004820152600560248201526429a922181960d91b6044820152606401610534565b8785146105fd5760405162461bcd60e51b8152602060048201526005602482015264535244303360d81b6044820152606401610534565b6106078484612d4d565b600260106101000a8154816001600160401b0302191690836001600160401b0316021790555060005b63ffffffff811689111561089f5760008a8a8363ffffffff1681811061066657634e487b7160e01b600052603260045260246000fd5b905060200201602081019061067b91906128d4565b9050600088888463ffffffff168181106106a557634e487b7160e01b600052603260045260246000fd5b60200291909101359150506001600160a01b0382166106ee5760405162461bcd60e51b815260206004820152600560248201526414d4910c0d60da1b6044820152606401610534565b600081116107265760405162461bcd60e51b8152602060048201526005602482015264535244303560d81b6044820152606401610534565b6040516370a0823160e01b8152306004820152829082906001600160a01b038316906370a082319060240160206040518083038186803b15801561076957600080fd5b505afa15801561077d573d6000803e3d6000fd5b505050506040513d601f19601f820116820180604052508101906107a19190612ada565b10156107d75760405162461bcd60e51b815260206004820152600560248201526429a922181b60d91b6044820152606401610534565b6040805160c0810182526001600160a01b0385168152602081018490526000918101610807600160701b86612d17565b8152600060208083018290526040808401839052606093840183905285546001808201885596845292829020855160069094020180546001600160a01b0319166001600160a01b03909416939093178355908401519482019490945592820151600284015581015160038301556080810151600483015560a0015160059091015550829150610897905081612dbc565b915050610630565b506001600160a01b0387166108de5760405162461bcd60e51b8152602060048201526005602482015264535244303760d81b6044820152606401610534565b600380546001600160a01b03199081166001600160a01b038a1617909155600480543392168217905560058054600280546fffffffffffffffffffffffffffffffff19166001600160401b03898116918217600160401b918a1691909102176001600160c01b0316600160c01b919091021790556007849055600160b01b6001600160a81b031990911660ff60a01b1990931692909217600160a01b851515021761ffff60a81b19169190911790556040517f2c1fa4f0e3f1c67636ee0b3665bf3a04407a2c1332d4e3e99f941ee2b0b9daf4906109cd908b908b908b908b908b908b908b908b908b90612b42565b60405180910390a1505050505050505050565b600554600160b01b900460ff168015610a035750600554600160a81b900460ff16155b8015610a1a57506002546001600160401b03164210155b610a365760405162461bcd60e51b815260040161053490612ca1565b60008111610a6e5760405162461bcd60e51b8152602060048201526005602482015264535244313160d81b6044820152606401610534565b600554600160a01b900460ff1615610ac957600254600160401b90046001600160401b03164211610ac95760405162461bcd60e51b815260206004820152600560248201526429a922189960d91b6044820152606401610534565b610ad1612342565b3360009081526001602052604090208054821115610b195760405162461bcd60e51b8152602060048201526005602482015264535244313360d81b6044820152606401610534565b81816000016000828254610b2d9190612d36565b925050819055508160066000828254610b469190612d36565b9091555050600354610b62906001600160a01b03163384612550565b60405182815233907f7084f5476618d8e60b11ef0d7d3f06914655adb8793e28ff7f018d4c76d505d5906020015b60405180910390a25050565b6000805b600054811015610ccc576000808281548110610bcc57634e487b7160e01b600052603260045260246000fd5b6000918252602090912060069091020180549091506001600160a01b0385811691161415610cb9576004810154600090610c0b90600160701b90612cf7565b8260050154610c1a9190612cdf565b9050808260010154610c2c9190612d36565b82546040516370a0823160e01b81523060048201526001600160a01b03909116906370a082319060240160206040518083038186803b158015610c6e57600080fd5b505afa158015610c82573d6000803e3d6000fd5b505050506040513d601f19601f82011682018060405250810190610ca69190612ada565b610cb09190612d36565b95945050505050565b5080610cc481612da1565b915050610ba0565b50600092915050565b6000805b600054811015610ccc576000808281548110610d0557634e487b7160e01b600052603260045260246000fd5b6000918252602090912060069091020180549091506001600160a01b0385811691161415610d3857600101549392505050565b5080610d4381612da1565b915050610cd9565b6004546001600160a01b03163314610d755760405162461bcd60e51b815260040161053490612cc0565b600480546001600160a01b031916905560405160009081907f8be0079c531659141344cd1fd0a4f28419497f9722a3daafe3b4186f6b6457e0908290a3565b600554600160b01b900460ff168015610dd75750600554600160a81b900460ff16155b8015610dee57506002546001600160401b03164210155b610e0a5760405162461bcd60e51b815260040161053490612ca1565b610e12612342565b33600090815260016020526040812081549091906001600160401b03811115610e4b57634e487b7160e01b600052604160045260246000fd5b604051908082528060200260200182016040528015610e74578160200160208202803683370190505b5090506000805b600054811015610f90576000808281548110610ea757634e487b7160e01b600052603260045260246000fd5b60009182526020808320600690920290910180546001600160a01b031683526001808901909252604083206002810154928101549194509291610ee991612d36565b905084158015610ef95750600081115b15610f0357600194505b80826002016000828254610f179190612cdf565b9250508190555080836005016000828254610f329190612cdf565b90915550508254610f4d906001600160a01b03168983612550565b80868581518110610f6e57634e487b7160e01b600052603260045260246000fd5b6020026020010181815250505050508080610f8890612da1565b915050610e7b565b5080610fc65760405162461bcd60e51b8152602060048201526005602482015264535244323360d81b6044820152606401610534565b336001600160a01b03167f28ee566bdecaf975c0979f4d09fecf91a9009ffe78523aef053a678134137b8b83604051610fff9190612c36565b60405180910390a250505050565b600554600160b01b900460ff1680156110305750600554600160a81b900460ff16155b801561104757506002546001600160401b03164210155b6110635760405162461bcd60e51b815260040161053490612ca1565b60005482511461109d5760405162461bcd60e51b815260206004820152600560248201526414d4910c4d60da1b6044820152606401610534565b6110a5612342565b33600090815260016020526040812081549091906001600160401b038111156110de57634e487b7160e01b600052604160045260246000fd5b604051908082528060200260200182016040528015611107578160200160208202803683370190505b5090506000805b60005481101561128857600080828154811061113a57634e487b7160e01b600052603260045260246000fd5b60009182526020808320600690920290910180546001600160a01b03168352600180890190925260408320600281015492810154919450929161117c91612d36565b905060008985815181106111a057634e487b7160e01b600052603260045260246000fd5b60200260200101519050808210156111e25760405162461bcd60e51b8152602060048201526005602482015264535244313560d81b6044820152606401610534565b851580156111f05750600081115b156111fa57600195505b8083600201600082825461120e9190612cdf565b92505081905550808460050160008282546112299190612cdf565b90915550508354611244906001600160a01b03168a83612550565b8087868151811061126557634e487b7160e01b600052603260045260246000fd5b60200260200101818152505050505050808061128090612da1565b91505061110e565b50806112be5760405162461bcd60e51b815260206004820152600560248201526414d4910c8d60da1b6044820152606401610534565b336001600160a01b03167f28ee566bdecaf975c0979f4d09fecf91a9009ffe78523aef053a678134137b8b836040516112f79190612c36565b60405180910390a25050505050565b6001600160a01b03811660009081526001602052604081208154606092906001600160401b0381111561134957634e487b7160e01b600052604160045260246000fd5b604051908082528060200260200182016040528015611372578160200160208202803683370190505b50905060005b600054811015611414578260010160008083815481106113a857634e487b7160e01b600052603260045260246000fd5b600091825260208083206006909202909101546001600160a01b0316835282019290925260400190206001015482518390839081106113f757634e487b7160e01b600052603260045260246000fd5b60209081029190910101528061140c81612da1565b915050611378565b509392505050565b600554600160b01b900460ff16801561143f5750600554600160a81b900460ff16155b801561145657506002546001600160401b03164210155b80156114745750600254600160401b90046001600160401b03164211155b6114a85760405162461bcd60e51b8152602060048201526005602482015264535244323160d81b6044820152606401610534565b600560009054906101000a90046001600160a01b03166001600160a01b031663bbb781cc6040518163ffffffff1660e01b8152600401602060405180830381600087803b1580156114f857600080fd5b505af115801561150c573d6000803e3d6000fd5b505050506040513d601f19601f820116820180604052508101906115309190612aa6565b156115655760405162461bcd60e51b8152602060048201526005602482015264535244323560d81b6044820152606401610534565b6000811161159d5760405162461bcd60e51b8152602060048201526005602482015264535244303960d81b6044820152606401610534565b600754156115ec57600754816006546115b69190612cdf565b11156115ec5760405162461bcd60e51b8152602060048201526005602482015264053524431360dc1b6044820152606401610534565b6115f4612342565b336000908152600160205260408120805490918391839190611617908490612cdf565b9250508190555081600660008282546116309190612cdf565b909155505060035461164d906001600160a01b03163330856125b8565b60405182815233907f9e71bc8eea02a63969f509818f2dafb9254532904319f9dbda79b67bd34a5f3d90602001610b90565b611687612342565b600080546001600160401b038111156116b057634e487b7160e01b600052604160045260246000fd5b6040519080825280602002602001820160405280156116d9578160200160208202803683370190505b5090506000805b60005463ffffffff821610156117e3576000808263ffffffff168154811061171857634e487b7160e01b600052603260045260246000fd5b6000918252602090912060069091020180549091506001600160a01b038781169116141561179a57848160010160008282546117549190612cdf565b909155506117689050600160701b86612d17565b81600201600082825461177b9190612cdf565b909155506001935061179a90506001600160a01b0387163330886125b8565b8060010154848363ffffffff16815181106117c557634e487b7160e01b600052603260045260246000fd5b602090810291909101015250806117db81612dbc565b9150506116e0565b50806118195760405162461bcd60e51b815260206004820152600560248201526429a922191b60d91b6044820152606401610534565b7f435783188b65ac75875f7b455c137ab431de3ce62e0842b34abb1874d690a726826040516118489190612c36565b60405180910390a150505050565b600554600160b01b900460ff1680156118795750600554600160a81b900460ff16155b801561189057506002546001600160401b03164210155b6118ac5760405162461bcd60e51b815260040161053490612ca1565b6118b581610db4565b336000908152600160205260409020546118ce906109e0565b50565b6001600160a01b03811660009081526001602052604081208154606092906001600160401b0381111561191457634e487b7160e01b600052604160045260246000fd5b60405190808252806020026020018201604052801561193d578160200160208202803683370190505b50905060005b60005481101561141457600080828154811061196f57634e487b7160e01b600052603260045260246000fd5b60009182526020808320600690920290910180546001600160a01b03168352600187019091526040909120600201548451919250908490849081106119c457634e487b7160e01b600052603260045260246000fd5b602090810291909101015250806119da81612da1565b915050611943565b60008054606091906001600160401b03811115611a0f57634e487b7160e01b600052604160045260246000fd5b604051908082528060200260200182016040528015611a38578160200160208202803683370190505b50905060005b600054811015611ad25760008181548110611a6957634e487b7160e01b600052603260045260246000fd5b600091825260209091206006909102015482516001600160a01b0390911690839083908110611aa857634e487b7160e01b600052603260045260246000fd5b6001600160a01b039092166020928302919091019091015280611aca81612da1565b915050611a3e565b50919050565b60008054606091906001600160401b03811115611b0557634e487b7160e01b600052604160045260246000fd5b604051908082528060200260200182016040528015611b2e578160200160208202803683370190505b50600554909150600160b01b900460ff161580611b5557506002546001600160401b031642105b15611bad5760005b600054811015611ba6576000828281518110611b8957634e487b7160e01b600052603260045260246000fd5b602090810291909101015280611b9e81612da1565b915050611b5d565b5092915050565b6001600160a01b0383166000908152600160205260408120600254909190611be6904290600160401b90046001600160401b03166125f6565b600254909150600090611c0990600160c01b90046001600160401b031683612d4d565b6002546001600160401b039182169250600091611c3891600160c01b8104821691600160401b90910416612d4d565b6001600160401b0316905060005b600054811015611d7f576000808281548110611c7257634e487b7160e01b600052603260045260246000fd5b60009182526020808320600690920290910180546001600160a01b031683526001890190915260409091206003820154919250908515801590611cb757506000600654115b15611cf15784600654846002015488611cd09190612d17565b611cda9190612cf7565b611ce49190612cf7565b611cee9082612cdf565b90505b8154600090600160701b90611d069084612d36565b8a54611d129190612d17565b611d1c9190612cf7565b905082600201548360010154611d329190612d36565b611d3c9082612cdf565b8a8681518110611d5c57634e487b7160e01b600052603260045260246000fd5b602002602001018181525050505050508080611d7790612da1565b915050611c46565b50939695505050505050565b600554600160b01b900460ff168015611dae5750600554600160a81b900460ff16155b8015611dc557506002546001600160401b03164210155b611de15760405162461bcd60e51b815260040161053490612ca1565b611de9612342565b600080546001600160401b03811115611e1257634e487b7160e01b600052604160045260246000fd5b604051908082528060200260200182016040528015611e3b578160200160208202803683370190505b5090506000805b600054811015611fcb576000808281548110611e6e57634e487b7160e01b600052603260045260246000fd5b90600052602060002090600602019050600160701b6001600160e01b03168160040154611e9b9190612cf7565b816005016000828254611eae9190612cdf565b909155505060006004820181905560058201546001830154611ed09190612d36565b82546040516370a0823160e01b81523060048201526001600160a01b03909116906370a082319060240160206040518083038186803b158015611f1257600080fd5b505afa158015611f26573d6000803e3d6000fd5b505050506040513d601f19601f82011682018060405250810190611f4a9190612ada565b611f549190612d36565b905083158015611f645750600081115b15611f6e57600193505b80858481518110611f8f57634e487b7160e01b600052603260045260246000fd5b60209081029190910101526004548254611fb6916001600160a01b03918216911683612550565b50508080611fc390612da1565b915050611e42565b50806120015760405162461bcd60e51b815260206004820152600560248201526429a922191960d91b6044820152606401610534565b7ff904fafa600a7e4e8039f3a5497d1b6016772e3060f87d3e40f911b315f00bd1826040516120309190612c36565b60405180910390a15050565b6004546001600160a01b031633146120665760405162461bcd60e51b815260040161053490612cc0565b600554600160b01b900460ff1680156120895750600554600160a81b900460ff16155b6120bd5760405162461bcd60e51b8152602060048201526005602482015264535244313960d81b6044820152606401610534565b6002546001600160401b031642106120ff5760405162461bcd60e51b81526020600482015260056024820152640a6a48860760db1b6044820152606401610534565b60005b6000548110156121ef57600080828154811061212e57634e487b7160e01b600052603260045260246000fd5b6000918252602090912060048054600690930290910180546040516370a0823160e01b815230938101939093529093506121dc926001600160a01b03908116929116906370a082319060240160206040518083038186803b15801561219257600080fd5b505afa1580156121a6573d6000803e3d6000fd5b505050506040513d601f19601f820116820180604052508101906121ca9190612ada565b83546001600160a01b03169190612550565b50806121e781612da1565b915050612102565b506005805460ff60a81b1916600160a81b1790556040517f1afb0ae590df277bcb3a37f88612725bf1f7df4755792b1548a7efe77985ff7790600090a1565b6004546001600160a01b031633146122585760405162461bcd60e51b815260040161053490612cc0565b6001600160a01b0381166122965760405162461bcd60e51b815260206004820152600560248201526429a922189b60d91b6044820152606401610534565b6004546040516001600160a01b038084169216907f8be0079c531659141344cd1fd0a4f28419497f9722a3daafe3b4186f6b6457e090600090a3600480546001600160a01b0319166001600160a01b0392909216919091179055565b6000818154811061230257600080fd5b60009182526020909120600690910201805460018201546002830154600384015460048501546005909501546001600160a01b0390941695509193909286565b600254600090612363904290600160401b90046001600160401b03166125f6565b60025490915060009061238690600160c01b90046001600160401b031683612d4d565b6002546001600160401b0391821692506000916123b591600160c01b8104821691600160401b90910416612d4d565b3360009081526001602052604081206001600160401b039290921692505b6000548110156125235760008082815481106123ff57634e487b7160e01b600052603260045260246000fd5b60009182526020808320600690920290910180546001600160a01b0316835260018601909152604090912090915085156124bd576000858360020154886124469190612d17565b6124509190612cf7565b90506006546000141561247c57808360040160008282546124719190612cdf565b909155506124a29050565b6006546124899082612cf7565b83600301600082825461249c9190612cdf565b90915550505b808360020160008282546124b69190612d36565b9091555050505b80546003830154600091600160701b916124d79190612d36565b86546124e39190612d17565b6124ed9190612cf7565b9050808260010160008282546125039190612cdf565b90915550505060039091015490558061251b81612da1565b9150506123d3565b5050600280546001600160401b03909416600160c01b026001600160c01b03909416939093179092555050565b6040516001600160a01b0383166024820152604481018290526125b390849063a9059cbb60e01b906064015b60408051601f198184030181529190526020810180516001600160e01b03166001600160e01b03199093169290921790915261260e565b505050565b6040516001600160a01b03808516602483015283166044820152606481018290526125f09085906323b872dd60e01b9060840161257c565b50505050565b60008183106126055781612607565b825b9392505050565b6000612663826040518060400160405280602081526020017f5361666545524332303a206c6f772d6c6576656c2063616c6c206661696c6564815250856001600160a01b03166126e09092919063ffffffff16565b8051909150156125b357808060200190518101906126819190612aa6565b6125b35760405162461bcd60e51b815260206004820152602a60248201527f5361666545524332303a204552433230206f7065726174696f6e20646964206e6044820152691bdd081cdd58d8d9595960b21b6064820152608401610534565b60606126ef84846000856126f7565b949350505050565b6060824710156127585760405162461bcd60e51b815260206004820152602660248201527f416464726573733a20696e73756666696369656e742062616c616e636520666f6044820152651c8818d85b1b60d21b6064820152608401610534565b843b6127a65760405162461bcd60e51b815260206004820152601d60248201527f416464726573733a2063616c6c20746f206e6f6e2d636f6e74726163740000006044820152606401610534565b600080866001600160a01b031685876040516127c29190612b26565b60006040518083038185875af1925050503d80600081146127ff576040519150601f19603f3d011682016040523d82523d6000602084013e612804565b606091505b509150915061281482828661281f565b979650505050505050565b6060831561282e575081612607565b82511561283e5782518084602001fd5b8160405162461bcd60e51b81526004016105349190612c6e565b80356001600160a01b038116811461286f57600080fd5b919050565b60008083601f840112612885578081fd5b5081356001600160401b0381111561289b578182fd5b6020830191508360208260051b85010111156128b657600080fd5b9250929050565b80356001600160401b038116811461286f57600080fd5b6000602082840312156128e5578081fd5b61260782612858565b60008060408385031215612900578081fd5b61290983612858565b946020939093013593505050565b600080600080600080600080600060e08a8c031215612934578485fd5b89356001600160401b038082111561294a578687fd5b6129568d838e01612874565b909b50995089915061296a60208d01612858565b985060408c013591508082111561297f578687fd5b5061298c8c828d01612874565b909750955061299f905060608b016128bd565b93506129ad60808b016128bd565b925060a08a01356129bd81612e0c565b8092505060c08a013590509295985092959850929598565b600080604083850312156129e7578182fd5b82356001600160401b03808211156129fd578384fd5b818501915085601f830112612a10578384fd5b8135602082821115612a2457612a24612df6565b8160051b604051601f19603f83011681018181108682111715612a4957612a49612df6565b604052838152828101945085830182870184018b1015612a67578889fd5b8896505b84871015612a89578035865260019690960195948301948301612a6b565b509650612a999050878201612858565b9450505050509250929050565b600060208284031215612ab7578081fd5b815161260781612e0c565b600060208284031215612ad3578081fd5b5035919050565b600060208284031215612aeb578081fd5b5051919050565b81835260006001600160fb1b03831115612b0a578081fd5b8260051b80836020870137939093016020019283525090919050565b60008251612b38818460208701612d75565b9190910192915050565b60e0808252810189905260008a6101008301825b8c811015612b84576001600160a01b03612b6f84612858565b16825260209283019290910190600101612b56565b506001600160a01b038b1660208501528381036040850152612ba7818a8c612af2565b92505050612bc060608301876001600160401b03169052565b6001600160401b0394909416608082015291151560a083015260c0909101529695505050505050565b6020808252825182820181905260009190848201906040850190845b81811015612c2a5783516001600160a01b031683529284019291840191600101612c05565b50909695505050505050565b6020808252825182820181905260009190848201906040850190845b81811015612c2a57835183529284019291840191600101612c52565b6020815260008251806020840152612c8d816040850160208701612d75565b601f01601f19169190910160400192915050565b602080825260059082015264053524432360dc1b604082015260600190565b602080825260059082015264535244313760d81b604082015260600190565b60008219821115612cf257612cf2612de0565b500190565b600082612d1257634e487b7160e01b81526012600452602481fd5b500490565b6000816000190483118215151615612d3157612d31612de0565b500290565b600082821015612d4857612d48612de0565b500390565b60006001600160401b0383811690831681811015612d6d57612d6d612de0565b039392505050565b60005b83811015612d90578181015183820152602001612d78565b838111156125f05750506000910152565b6000600019821415612db557612db5612de0565b5060010190565b600063ffffffff80831681811415612dd657612dd6612de0565b6001019392505050565b634e487b7160e01b600052601160045260246000fd5b634e487b7160e01b600052604160045260246000fd5b80151581146118ce57600080fdfea264697066735822122011a0e5dabab92bedefe4544490827c1eabc67f5bc2e4eee84021dd2ea74d0a5664736f6c63430008040033",
  "linkReferences": {},
  "deployedLinkReferences": {}
}