{
  "_format": "hh-sol-artifact-1",
  "contractName": "ERC20StakingRewardsDistributionFactory",
  "sourceName": "contracts/ERC20StakingRewardsDistributionFactory.sol",
  "abi": [
    {
      "inputs": [
        {
          "internalType": "address",
          "name": "_implementation",
          "type": "address"
        }
      ],
      "stateMutability": "nonpayable",
      "type": "constructor"
    },
    {
      "anonymous": false,
      "inputs": [
        {
          "indexed": false,
          "internalType": "address",
          "name": "owner",
          "type": "address"
        },
        {
          "indexed": false,
          "internalType": "address",
          "name": "deployedAt",
          "type": "address"
        }
      ],
      "name": "DistributionCreated",
      "type": "event"
    },
    {
      "anonymous": false,
      "inputs": [
        {
          "indexed": true,
          "internalType": "address",
          "name": "previousOwner",
          "type": "address"
        },
        {
          "indexed": true,
          "internalType": "address",
          "name": "newOwner",
          "type": "address"
        }
      ],
      "name": "OwnershipTransferred",
      "type": "event"
    },
    {
      "inputs": [
        {
          "internalType": "address[]",
          "name": "_rewardTokenAddresses",
          "type": "address[]"
        },
        {
          "internalType": "address",
          "name": "_stakableTokenAddress",
          "type": "address"
        },
        {
          "internalType": "uint256[]",
          "name": "_rewardAmounts",
          "type": "uint256[]"
        },
        {
          "internalType": "uint64",
          "name": "_startingTimestamp",
          "type": "uint64"
        },
        {
          "internalType": "uint64",
          "name": "_endingTimestamp",
          "type": "uint64"
        },
        {
          "internalType": "bool",
          "name": "_locked",
          "type": "bool"
        },
        {
          "internalType": "uint256",
          "name": "_stakingCap",
          "type": "uint256"
        }
      ],
      "name": "createDistribution",
      "outputs": [],
      "stateMutability": "nonpayable",
      "type": "function"
    },
    {
      "inputs": [
        {
          "internalType": "uint256",
          "name": "",
          "type": "uint256"
        }
      ],
      "name": "distributions",
      "outputs": [
        {
          "internalType": "contract IERC20StakingRewardsDistribution",
          "name": "",
          "type": "address"
        }
      ],
      "stateMutability": "view",
      "type": "function"
    },
    {
      "inputs": [],
      "name": "getDistributionsAmount",
      "outputs": [
        {
          "internalType": "uint256",
          "name": "",
          "type": "uint256"
        }
      ],
      "stateMutability": "view",
      "type": "function"
    },
    {
      "inputs": [],
      "name": "implementation",
      "outputs": [
        {
          "internalType": "address",
          "name": "",
          "type": "address"
        }
      ],
      "stateMutability": "view",
      "type": "function"
    },
    {
      "inputs": [],
      "name": "owner",
      "outputs": [
        {
          "internalType": "address",
          "name": "",
          "type": "address"
        }
      ],
      "stateMutability": "view",
      "type": "function"
    },
    {
      "inputs": [],
      "name": "pauseStaking",
      "outputs": [],
      "stateMutability": "nonpayable",
      "type": "function"
    },
    {
      "inputs": [],
      "name": "renounceOwnership",
      "outputs": [],
      "stateMutability": "nonpayable",
      "type": "function"
    },
    {
      "inputs": [],
      "name": "resumeStaking",
      "outputs": [],
      "stateMutability": "nonpayable",
      "type": "function"
    },
    {
      "inputs": [],
      "name": "stakingPaused",
      "outputs": [
        {
          "internalType": "bool",
          "name": "",
          "type": "bool"
        }
      ],
      "stateMutability": "view",
      "type": "function"
    },
    {
      "inputs": [
        {
          "internalType": "address",
          "name": "newOwner",
          "type": "address"
        }
      ],
      "name": "transferOwnership",
      "outputs": [],
      "stateMutability": "nonpayable",
      "type": "function"
    },
    {
      "inputs": [
        {
          "internalType": "address",
          "name": "_implementation",
          "type": "address"
        }
      ],
      "name": "upgradeImplementation",
      "outputs": [],
      "stateMutability": "nonpayable",
      "type": "function"
    }
  ],
  "bytecode": "0x608060405234801561001057600080fd5b50604051610e0c380380610e0c83398101604081905261002f91610095565b600080546001600160a01b031916339081178255604051909182917f8be0079c531659141344cd1fd0a4f28419497f9722a3daafe3b4186f6b6457e0908290a350600180546001600160a01b0319166001600160a01b03929092169190911790556100c3565b6000602082840312156100a6578081fd5b81516001600160a01b03811681146100bc578182fd5b9392505050565b610d3a806100d26000396000f3fe608060405234801561001057600080fd5b50600436106100a95760003560e01c806383f94db71161007157806383f94db7146101165780638da5cb5b14610129578063bbb781cc1461013a578063d5eeaef71461015e578063f2fde38b1461016f578063f999c5061461018257600080fd5b80632c8908ff146100ae5780634487d3df146100c35780635c60da1b146100f3578063715018a6146101065780637475f9131461010e575b600080fd5b6100c16100bc366004610a4c565b61018a565b005b6100d66100d1366004610b27565b610393565b6040516001600160a01b0390911681526020015b60405180910390f35b6001546100d6906001600160a01b031681565b6100c16103bd565b6100c161043a565b6100c1610124366004610a32565b6104b4565b6000546001600160a01b03166100d6565b60015461014e90600160a01b900460ff1681565b60405190151581526020016100ea565b6002546040519081526020016100ea565b6100c161017d366004610a32565b610500565b6100c16105ea565b6001546000906101a2906001600160a01b031661066b565b905060005b898110156102335761022133838a8a858181106101d457634e487b7160e01b600052603260045260246000fd5b905060200201358e8e868181106101fb57634e487b7160e01b600052603260045260246000fd5b90506020020160208101906102109190610a32565b6001600160a01b0316929190610708565b8061022b81610ccc565b9150506101a7565b506040516311d1371b60e11b815281906001600160a01b038216906323a26e3690610272908e908e908e908e908e908e908e908e908e90600401610b8f565b600060405180830381600087803b15801561028c57600080fd5b505af11580156102a0573d6000803e3d6000fd5b505060405163f2fde38b60e01b81523360048201526001600160a01b038416925063f2fde38b9150602401600060405180830381600087803b1580156102e557600080fd5b505af11580156102f9573d6000803e3d6000fd5b5050600280546001810182556000919091527f405787fa12a823e0f2b7631cc41b3ba8828b3321ca811111fa75cd3aa3bb5ace0180546001600160a01b0319166001600160a01b0385169081179091556040805133815260208101929092527fc017437e795c074edadc242e8f0b868fb614ed8d2923b9a58cbc52799e8b9b27935001905060405180910390a15050505050505050505050565b600281815481106103a357600080fd5b6000918252602090912001546001600160a01b0316905081565b6000546001600160a01b031633146103f05760405162461bcd60e51b81526004016103e790610c6b565b60405180910390fd5b600080546040516001600160a01b03909116907f8be0079c531659141344cd1fd0a4f28419497f9722a3daafe3b4186f6b6457e0908390a3600080546001600160a01b0319169055565b6000546001600160a01b031633146104645760405162461bcd60e51b81526004016103e790610c6b565b600154600160a01b900460ff166104a55760405162461bcd60e51b815260206004820152600560248201526429a923181960d91b60448201526064016103e7565b6001805460ff60a01b19169055565b6000546001600160a01b031633146104de5760405162461bcd60e51b81526004016103e790610c6b565b600180546001600160a01b0319166001600160a01b0392909216919091179055565b6000546001600160a01b0316331461052a5760405162461bcd60e51b81526004016103e790610c6b565b6001600160a01b03811661058f5760405162461bcd60e51b815260206004820152602660248201527f4f776e61626c653a206e6577206f776e657220697320746865207a65726f206160448201526564647265737360d01b60648201526084016103e7565b600080546040516001600160a01b03808516939216917f8be0079c531659141344cd1fd0a4f28419497f9722a3daafe3b4186f6b6457e091a3600080546001600160a01b0319166001600160a01b0392909216919091179055565b6000546001600160a01b031633146106145760405162461bcd60e51b81526004016103e790610c6b565b600154600160a01b900460ff16156106565760405162461bcd60e51b8152602060048201526005602482015264535246303160d81b60448201526064016103e7565b6001805460ff60a01b1916600160a01b179055565b6000604051733d602d80600a3d3981f3363d3d373d3d3d363d7360601b81528260601b60148201526e5af43d82803e903d91602b57fd5bf360881b60288201526037816000f09150506001600160a01b0381166107035760405162461bcd60e51b8152602060048201526016602482015275115490cc4c4d8dce8818dc99585d194819985a5b195960521b60448201526064016103e7565b919050565b604080516001600160a01b0385811660248301528416604482015260648082018490528251808303909101815260849091019091526020810180516001600160e01b03166323b872dd60e01b179052610762908590610768565b50505050565b60006107bd826040518060400160405280602081526020017f5361666545524332303a206c6f772d6c6576656c2063616c6c206661696c6564815250856001600160a01b031661083f9092919063ffffffff16565b80519091501561083a57808060200190518101906107db9190610b0b565b61083a5760405162461bcd60e51b815260206004820152602a60248201527f5361666545524332303a204552433230206f7065726174696f6e20646964206e6044820152691bdd081cdd58d8d9595960b21b60648201526084016103e7565b505050565b606061084e8484600085610858565b90505b9392505050565b6060824710156108b95760405162461bcd60e51b815260206004820152602660248201527f416464726573733a20696e73756666696369656e742062616c616e636520666f6044820152651c8818d85b1b60d21b60648201526084016103e7565b843b6109075760405162461bcd60e51b815260206004820152601d60248201527f416464726573733a2063616c6c20746f206e6f6e2d636f6e747261637400000060448201526064016103e7565b600080866001600160a01b031685876040516109239190610b73565b60006040518083038185875af1925050503d8060008114610960576040519150601f19603f3d011682016040523d82523d6000602084013e610965565b606091505b5091509150610975828286610980565b979650505050505050565b6060831561098f575081610851565b82511561099f5782518084602001fd5b8160405162461bcd60e51b81526004016103e79190610c38565b80356001600160a01b038116811461070357600080fd5b60008083601f8401126109e1578182fd5b50813567ffffffffffffffff8111156109f8578182fd5b6020830191508360208260051b8501011115610a1357600080fd5b9250929050565b803567ffffffffffffffff8116811461070357600080fd5b600060208284031215610a43578081fd5b610851826109b9565b600080600080600080600080600060e08a8c031215610a69578485fd5b893567ffffffffffffffff80821115610a80578687fd5b610a8c8d838e016109d0565b909b509950899150610aa060208d016109b9565b985060408c0135915080821115610ab5578687fd5b50610ac28c828d016109d0565b9097509550610ad5905060608b01610a1a565b9350610ae360808b01610a1a565b925060a08a0135610af381610cf3565b8092505060c08a013590509295985092959850929598565b600060208284031215610b1c578081fd5b815161085181610cf3565b600060208284031215610b38578081fd5b5035919050565b81835260006001600160fb1b03831115610b57578081fd5b8260051b80836020870137939093016020019283525090919050565b60008251610b85818460208701610ca0565b9190910192915050565b60e0808252810189905260008a6101008301825b8c811015610bd1576001600160a01b03610bbc846109b9565b16825260209283019290910190600101610ba3565b506001600160a01b038b1660208501528381036040850152610bf4818a8c610b3f565b92505050610c0e606083018767ffffffffffffffff169052565b67ffffffffffffffff94909416608082015291151560a083015260c0909101529695505050505050565b6020815260008251806020840152610c57816040850160208701610ca0565b601f01601f19169190910160400192915050565b6020808252818101527f4f776e61626c653a2063616c6c6572206973206e6f7420746865206f776e6572604082015260600190565b60005b83811015610cbb578181015183820152602001610ca3565b838111156107625750506000910152565b6000600019821415610cec57634e487b7160e01b81526011600452602481fd5b5060010190565b8015158114610d0157600080fd5b5056fea2646970667358221220ed1dbfc3eb5f8ff6511e7f97dc58a370baf9b54a61a1073c65e65d210c26370064736f6c63430008040033",
  "linkReferences": {},
  "deployedLinkReferences": {}
}