{
  "_format": "hh-sol-artifact-1",
  "contractName": "StandaloneERC20StakingRewardsDistribution",
  "sourceName": "contracts/StandaloneERC20StakingRewardsDistribution.sol",
  "abi": [
    {
      "inputs": [],
      "name": "AlreadyEnded",
      "type": "error"
    },
    {
      "inputs": [],
      "name": "AlreadyInitialized",
      "type": "error"
    },
    {
      "inputs": [],
      "name": "CallerNotOwner",
      "type": "error"
    },
    {
      "inputs": [],
      "name": "FundsLocked",
      "type": "error"
    },
    {
      "inputs": [],
      "name": "InconsistentClaimedAmounts",
      "type": "error"
    },
    {
      "inputs": [],
      "name": "InconsistentRewardTokensAndAmounts",
      "type": "error"
    },
    {
      "inputs": [],
      "name": "InsufficientClaimableAmount",
      "type": "error"
    },
    {
      "inputs": [],
      "name": "InsufficientStake",
      "type": "error"
    },
    {
      "inputs": [],
      "name": "InvalidCancelationState",
      "type": "error"
    },
    {
      "inputs": [],
      "name": "InvalidDuration",
      "type": "error"
    },
    {
      "inputs": [],
      "name": "InvalidStartingTimestamp",
      "type": "error"
    },
    {
      "inputs": [],
      "name": "NoClaimableRewards",
      "type": "error"
    },
    {
      "inputs": [],
      "name": "NoRecoverableRewards",
      "type": "error"
    },
    {
      "inputs": [],
      "name": "NotStarted",
      "type": "error"
    },
    {
      "inputs": [],
      "name": "StakingCapSurpassed",
      "type": "error"
    },
    {
      "inputs": [],
      "name": "ZeroAddressOwner",
      "type": "error"
    },
    {
      "inputs": [],
      "name": "ZeroAddressRewardToken",
      "type": "error"
    },
    {
      "inputs": [],
      "name": "ZeroAddressStakableToken",
      "type": "error"
    },
    {
      "inputs": [],
      "name": "ZeroRewardAmount",
      "type": "error"
    },
    {
      "inputs": [],
      "name": "ZeroStakeAmount",
      "type": "error"
    },
    {
      "inputs": [],
      "name": "ZeroWithdrawAmount",
      "type": "error"
    },
    {
      "anonymous": false,
      "inputs": [],
      "name": "Canceled",
      "type": "event"
    },
    {
      "anonymous": false,
      "inputs": [
        {
          "indexed": true,
          "internalType": "address",
          "name": "claimer",
          "type": "address"
        },
        {
          "indexed": false,
          "internalType": "uint256[]",
          "name": "amounts",
          "type": "uint256[]"
        }
      ],
      "name": "Claimed",
      "type": "event"
    },
    {
      "anonymous": false,
      "inputs": [
        {
          "indexed": false,
          "internalType": "address[]",
          "name": "rewardsTokenAddresses",
          "type": "address[]"
        },
        {
          "indexed": false,
          "internalType": "address",
          "name": "stakableTokenAddress",
          "type": "address"
        },
        {
          "indexed": false,
          "internalType": "uint256[]",
          "name": "rewardsAmounts",
          "type": "uint256[]"
        },
        {
          "indexed": false,
          "internalType": "uint64",
          "name": "startingTimestamp",
          "type": "uint64"
        },
        {
          "indexed": false,
          "internalType": "uint64",
          "name": "endingTimestamp",
          "type": "uint64"
        },
        {
          "indexed": false,
          "internalType": "bool",
          "name": "locked",
          "type": "bool"
        },
        {
          "indexed": false,
          "internalType": "uint256",
          "name": "stakingCap",
          "type": "uint256"
        }
      ],
      "name": "Initialized",
      "type": "event"
    },
    {
      "anonymous": false,
      "inputs": [
        {
          "indexed": true,
          "internalType": "address",
          "name": "previousOwner",
          "type": "address"
        },
        {
          "indexed": true,
          "internalType": "address",
          "name": "newOwner",
          "type": "address"
        }
      ],
      "name": "OwnershipTransferred",
      "type": "event"
    },
    {
      "anonymous": false,
      "inputs": [
        {
          "indexed": false,
          "internalType": "uint256[]",
          "name": "amounts",
          "type": "uint256[]"
        }
      ],
      "name": "Recovered",
      "type": "event"
    },
    {
      "anonymous": false,
      "inputs": [
        {
          "indexed": true,
          "internalType": "address",
          "name": "staker",
          "type": "address"
        },
        {
          "indexed": false,
          "internalType": "uint256",
          "name": "amount",
          "type": "uint256"
        }
      ],
      "name": "Staked",
      "type": "event"
    },
    {
      "anonymous": false,
      "inputs": [
        {
          "indexed": true,
          "internalType": "address",
          "name": "withdrawer",
          "type": "address"
        },
        {
          "indexed": false,
          "internalType": "uint256",
          "name": "amount",
          "type": "uint256"
        }
      ],
      "name": "Withdrawn",
      "type": "event"
    },
    {
      "inputs": [],
      "name": "cancel",
      "outputs": [],
      "stateMutability": "nonpayable",
      "type": "function"
    },
    {
      "inputs": [],
      "name": "canceled",
      "outputs": [
        {
          "internalType": "bool",
          "name": "",
          "type": "bool"
        }
      ],
      "stateMutability": "view",
      "type": "function"
    },
    {
      "inputs": [
        {
          "internalType": "uint256[]",
          "name": "_amounts",
          "type": "uint256[]"
        },
        {
          "internalType": "address",
          "name": "_recipient",
          "type": "address"
        }
      ],
      "name": "claim",
      "outputs": [],
      "stateMutability": "nonpayable",
      "type": "function"
    },
    {
      "inputs": [
        {
          "internalType": "address",
          "name": "_recipient",
          "type": "address"
        }
      ],
      "name": "claimAll",
      "outputs": [],
      "stateMutability": "nonpayable",
      "type": "function"
    },
    {
      "inputs": [
        {
          "internalType": "address",
          "name": "_account",
          "type": "address"
        }
      ],
      "name": "claimableRewards",
      "outputs": [
        {
          "internalType": "uint256[]",
          "name": "",
          "type": "uint256[]"
        }
      ],
      "stateMutability": "view",
      "type": "function"
    },
    {
      "inputs": [
        {
          "internalType": "address",
          "name": "_staker",
          "type": "address"
        }
      ],
      "name": "earnedRewardsOf",
      "outputs": [
        {
          "internalType": "uint256[]",
          "name": "",
          "type": "uint256[]"
        }
      ],
      "stateMutability": "view",
      "type": "function"
    },
    {
      "inputs": [],
      "name": "endingTimestamp",
      "outputs": [
        {
          "internalType": "uint64",
          "name": "",
          "type": "uint64"
        }
      ],
      "stateMutability": "view",
      "type": "function"
    },
    {
      "inputs": [
        {
          "internalType": "address",
          "name": "_recipient",
          "type": "address"
        }
      ],
      "name": "exit",
      "outputs": [],
      "stateMutability": "nonpayable",
      "type": "function"
    },
    {
      "inputs": [
        {
          "internalType": "address",
          "name": "_claimer",
          "type": "address"
        }
      ],
      "name": "getClaimedRewards",
      "outputs": [
        {
          "internalType": "uint256[]",
          "name": "",
          "type": "uint256[]"
        }
      ],
      "stateMutability": "view",
      "type": "function"
    },
    {
      "inputs": [],
      "name": "getRewardTokens",
      "outputs": [
        {
          "internalType": "address[]",
          "name": "",
          "type": "address[]"
        }
      ],
      "stateMutability": "view",
      "type": "function"
    },
    {
      "inputs": [
        {
          "internalType": "address[]",
          "name": "_rewardTokenAddresses",
          "type": "address[]"
        },
        {
          "internalType": "address",
          "name": "_stakableTokenAddress",
          "type": "address"
        },
        {
          "internalType": "uint256[]",
          "name": "_rewardAmounts",
          "type": "uint256[]"
        },
        {
          "internalType": "uint64",
          "name": "_startingTimestamp",
          "type": "uint64"
        },
        {
          "internalType": "uint64",
          "name": "_endingTimestamp",
          "type": "uint64"
        },
        {
          "internalType": "bool",
          "name": "_locked",
          "type": "bool"
        },
        {
          "internalType": "uint256",
          "name": "_stakingCap",
          "type": "uint256"
        }
      ],
      "name": "initialize",
      "outputs": [],
      "stateMutability": "nonpayable",
      "type": "function"
    },
    {
      "inputs": [],
      "name": "initialized",
      "outputs": [
        {
          "internalType": "bool",
          "name": "",
          "type": "bool"
        }
      ],
      "stateMutability": "view",
      "type": "function"
    },
    {
      "inputs": [],
      "name": "lastConsolidationTimestamp",
      "outputs": [
        {
          "internalType": "uint64",
          "name": "",
          "type": "uint64"
        }
      ],
      "stateMutability": "view",
      "type": "function"
    },
    {
      "inputs": [],
      "name": "locked",
      "outputs": [
        {
          "internalType": "bool",
          "name": "",
          "type": "bool"
        }
      ],
      "stateMutability": "view",
      "type": "function"
    },
    {
      "inputs": [],
      "name": "owner",
      "outputs": [
        {
          "internalType": "address",
          "name": "",
          "type": "address"
        }
      ],
      "stateMutability": "view",
      "type": "function"
    },
    {
      "inputs": [],
      "name": "recoverUnassignedRewards",
      "outputs": [],
      "stateMutability": "nonpayable",
      "type": "function"
    },
    {
      "inputs": [
        {
          "internalType": "address",
          "name": "_rewardToken",
          "type": "address"
        }
      ],
      "name": "recoverableUnassignedReward",
      "outputs": [
        {
          "internalType": "uint256",
          "name": "",
          "type": "uint256"
        }
      ],
      "stateMutability": "view",
      "type": "function"
    },
    {
      "inputs": [],
      "name": "renounceOwnership",
      "outputs": [],
      "stateMutability": "nonpayable",
      "type": "function"
    },
    {
      "inputs": [
        {
          "internalType": "address",
          "name": "_rewardToken",
          "type": "address"
        }
      ],
      "name": "rewardAmount",
      "outputs": [
        {
          "internalType": "uint256",
          "name": "",
          "type": "uint256"
        }
      ],
      "stateMutability": "view",
      "type": "function"
    },
    {
      "inputs": [
        {
          "internalType": "uint256",
          "name": "",
          "type": "uint256"
        }
      ],
      "name": "rewards",
      "outputs": [
        {
          "internalType": "address",
          "name": "token",
          "type": "address"
        },
        {
          "internalType": "uint256",
          "name": "amount",
          "type": "uint256"
        },
        {
          "internalType": "uint256",
          "name": "perStakedToken",
          "type": "uint256"
        },
        {
          "internalType": "uint256",
          "name": "recoverableSeconds",
          "type": "uint256"
        },
        {
          "internalType": "uint256",
          "name": "claimed",
          "type": "uint256"
        }
      ],
      "stateMutability": "view",
      "type": "function"
    },
    {
      "inputs": [],
      "name": "secondsDuration",
      "outputs": [
        {
          "internalType": "uint64",
          "name": "",
          "type": "uint64"
        }
      ],
      "stateMutability": "view",
      "type": "function"
    },
    {
      "inputs": [],
      "name": "stakableToken",
      "outputs": [
        {
          "internalType": "contract IERC20",
          "name": "",
          "type": "address"
        }
      ],
      "stateMutability": "view",
      "type": "function"
    },
    {
      "inputs": [
        {
          "internalType": "uint256",
          "name": "_amount",
          "type": "uint256"
        }
      ],
      "name": "stake",
      "outputs": [],
      "stateMutability": "nonpayable",
      "type": "function"
    },
    {
      "inputs": [
        {
          "internalType": "address",
          "name": "_staker",
          "type": "address"
        }
      ],
      "name": "stakedTokensOf",
      "outputs": [
        {
          "internalType": "uint256",
          "name": "",
          "type": "uint256"
        }
      ],
      "stateMutability": "view",
      "type": "function"
    },
    {
      "inputs": [
        {
          "internalType": "address",
          "name": "",
          "type": "address"
        }
      ],
      "name": "stakers",
      "outputs": [
        {
          "internalType": "uint256",
          "name": "stake",
          "type": "uint256"
        }
      ],
      "stateMutability": "view",
      "type": "function"
    },
    {
      "inputs": [],
      "name": "stakingCap",
      "outputs": [
        {
          "internalType": "uint256",
          "name": "",
          "type": "uint256"
        }
      ],
      "stateMutability": "view",
      "type": "function"
    },
    {
      "inputs": [],
      "name": "startingTimestamp",
      "outputs": [
        {
          "internalType": "uint64",
          "name": "",
          "type": "uint64"
        }
      ],
      "stateMutability": "view",
      "type": "function"
    },
    {
      "inputs": [],
      "name": "totalStakedTokensAmount",
      "outputs": [
        {
          "internalType": "uint256",
          "name": "",
          "type": "uint256"
        }
      ],
      "stateMutability": "view",
      "type": "function"
    },
    {
      "inputs": [
        {
          "internalType": "address",
          "name": "_newOwner",
          "type": "address"
        }
      ],
      "name": "transferOwnership",
      "outputs": [],
      "stateMutability": "nonpayable",
      "type": "function"
    },
    {
      "inputs": [
        {
          "internalType": "uint256",
          "name": "_amount",
          "type": "uint256"
        }
      ],
      "name": "withdraw",
      "outputs": [],
      "stateMutability": "nonpayable",
      "type": "function"
    }
  ],
  "bytecode": "0x608060405234801561001057600080fd5b506128f2806100206000396000f3fe608060405234801561001057600080fd5b50600436106101da5760003560e01c80639168ae7211610104578063c10de300116100a2578063e644067d11610071578063e644067d1461044d578063ea8a1af014610455578063f2fde38b1461045d578063f301af421461047057600080fd5b8063c10de300146103f7578063c4f59f9b14610411578063cf30901214610426578063dc01f60d1461043a57600080fd5b8063ab08d4fc116100de578063ab08d4fc1461039f578063b41fa979146103c8578063b42652e9146103d1578063b9e35db0146103e457600080fd5b80639168ae721461034c5780639322776e1461036c578063a694fc3a1461038c57600080fd5b80635e5294b71161017c57806377329f351161014b57806377329f351461030057806388786272146103135780638c574b48146103265780638da5cb5b1461033957600080fd5b80635e5294b7146102995780635fa35023146102cb578063645a8a56146102e5578063715018a6146102f857600080fd5b80632e1a7d4d116101b85780632e1a7d4d146102485780633b34ee501461025b5780633f9942ff1461027c57806344c370d31461029057600080fd5b8063158ef93e146101df5780631c96c3fb1461020857806323a26e3614610233575b600080fd5b6004546101f390600160b01b900460ff1681565b60405190151581526020015b60405180910390f35b60035461021b906001600160a01b031681565b6040516001600160a01b0390911681526020016101ff565b6102466102413660046123f7565b6104b5565b005b6102466102563660046125a2565b6108a4565b61026e6102693660046123dd565b610a1c565b6040519081526020016101ff565b6004546101f390600160a81b900460ff1681565b61026e60065481565b6002546102b390600160401b90046001600160401b031681565b6040516001600160401b0390911681526020016101ff565b6002546102b390600160801b90046001600160401b031681565b61026e6102f33660046123dd565b610b81565b610246610bf7565b61024661030e3660046123dd565b610c61565b6002546102b3906001600160401b031681565b6102466103343660046124b5565b610ea8565b60045461021b906001600160a01b031681565b61026e61035a3660046123dd565b60016020526000908152604090205481565b61037f61037a3660046123dd565b611161565b6040516101ff9190612716565b61024661039a3660046125a2565b611277565b61026e6103ad3660046123dd565b6001600160a01b031660009081526001602052604090205490565b61026e60055481565b6102466103df3660046123dd565b6113d8565b61037f6103f23660046123dd565b611452565b6002546102b390600160c01b90046001600160401b031681565b610419611563565b6040516101ff91906126c9565b6004546101f390600160a01b900460ff1681565b61037f6104483660046123dd565b611659565b6102466118fd565b610246611bbb565b61024661046b3660046123dd565b611d6b565b61048361047e3660046125a2565b611e19565b604080516001600160a01b0390961686526020860194909452928401919091526060830152608082015260a0016101ff565b600454600160b01b900460ff16156104df5760405162dc149f60e41b815260040160405180910390fd5b42846001600160401b03161161050857604051633436d5b160e01b815260040160405180910390fd5b836001600160401b0316836001600160401b03161161053a57604051637616640160e01b815260040160405180910390fd5b87851461055a5760405163b54fd04160e01b815260040160405180910390fd5b61056484846127ef565b600260106101000a8154816001600160401b0302191690836001600160401b0316021790555060005b63ffffffff811689111561078f5760008a8a8363ffffffff168181106105c357634e487b7160e01b600052603260045260246000fd5b90506020020160208101906105d891906123dd565b9050600088888463ffffffff1681811061060257634e487b7160e01b600052603260045260246000fd5b60200291909101359150506001600160a01b03821661063457604051638bc1b2d960e01b815260040160405180910390fd5b806106525760405163ea1083a760e01b815260040160405180910390fd5b6106676001600160a01b038316333084611e64565b6040805160a0810182526001600160a01b0393841681526020810192835260009181018281526060820183815260808301848152845460018101865594805292517f290decd9548b62a8d60345a988386fc84ba6bc95484008f6362f93160ef3e563600590950294850180546001600160a01b031916919097161790955592517f290decd9548b62a8d60345a988386fc84ba6bc95484008f6362f93160ef3e56483015591517f290decd9548b62a8d60345a988386fc84ba6bc95484008f6362f93160ef3e56582015591517f290decd9548b62a8d60345a988386fc84ba6bc95484008f6362f93160ef3e566830155517f290decd9548b62a8d60345a988386fc84ba6bc95484008f6362f93160ef3e56790910155806107878161285e565b91505061058d565b506001600160a01b0387166107b757604051634e42559f60e11b815260040160405180910390fd5b600380546001600160a01b0319166001600160a01b03891617905560048054600280546fffffffffffffffffffffffffffffffff19166001600160401b03888116918217600160401b91891691909102176001600160c01b0316600160c01b919091021790556006839055600160b01b6001600160a81b03199091163360ff60a01b191617600160a01b851515021761ffff60a81b19161790556040517f2c1fa4f0e3f1c67636ee0b3665bf3a04407a2c1332d4e3e99f941ee2b0b9daf490610891908b908b908b908b908b908b908b908b908b90612622565b60405180910390a1505050505050505050565b600454600160b01b900460ff1615806108c65750600454600160a81b900460ff165b806108db57506002546001600160401b031642105b156108f957604051636f312cbd60e01b815260040160405180910390fd5b806109175760405163d6d9e66560e01b815260040160405180910390fd5b600454600160a01b900460ff1680156109425750600254600160401b90046001600160401b03164211155b15610960576040516321bd81c960e11b815260040160405180910390fd5b610968611ed5565b3360009081526001602052604090208054821115610999576040516378de4a6960e11b815260040160405180910390fd5b818160000160008282546109ad91906127d8565b9250508190555081600560008282546109c691906127d8565b90915550506003546109e2906001600160a01b031633846120c5565b60405182815233907f7084f5476618d8e60b11ef0d7d3f06914655adb8793e28ff7f018d4c76d505d5906020015b60405180910390a25050565b6000805b600054811015610b78576000808281548110610a4c57634e487b7160e01b600052603260045260246000fd5b6000918252602090912060059091020180549091506001600160a01b0385811691161415610b6557600254600090610a9990600160701b90600160801b90046001600160401b03166127b9565b82600101548360030154610aad91906127b9565b610ab79190612799565b8260040154610ac69190612781565b9050808260010154610ad891906127d8565b82546040516370a0823160e01b81523060048201526001600160a01b03909116906370a082319060240160206040518083038186803b158015610b1a57600080fd5b505afa158015610b2e573d6000803e3d6000fd5b505050506040513d601f19601f82011682018060405250810190610b5291906125ba565b610b5c91906127d8565b95945050505050565b5080610b7081612843565b915050610a20565b50600092915050565b6000805b600054811015610b78576000808281548110610bb157634e487b7160e01b600052603260045260246000fd5b6000918252602090912060059091020180549091506001600160a01b0385811691161415610be457600101549392505050565b5080610bef81612843565b915050610b85565b6004546001600160a01b03163314610c2257604051632e6c18c960e11b815260040160405180910390fd5b600480546001600160a01b031916905560405160009081907f8be0079c531659141344cd1fd0a4f28419497f9722a3daafe3b4186f6b6457e0908290a3565b600454600160b01b900460ff161580610c835750600454600160a81b900460ff165b80610c9857506002546001600160401b031642105b15610cb657604051636f312cbd60e01b815260040160405180910390fd5b610cbe611ed5565b33600090815260016020526040812081549091906001600160401b03811115610cf757634e487b7160e01b600052604160045260246000fd5b604051908082528060200260200182016040528015610d20578160200160208202803683370190505b5090506000805b600054811015610e42576000808281548110610d5357634e487b7160e01b600052603260045260246000fd5b60009182526020808320600590920290910180546001600160a01b031683526001808901909252604083206002810154928101549194509291610d95916127d8565b905084158015610da55750600081115b15610daf57600194505b8015610dff5780826002016000828254610dc99190612781565b9250508190555080836004016000828254610de49190612781565b90915550508254610dff906001600160a01b031689836120c5565b80868581518110610e2057634e487b7160e01b600052603260045260246000fd5b6020026020010181815250505050508080610e3a90612843565b915050610d27565b5080610e615760405163f40c208960e01b815260040160405180910390fd5b336001600160a01b03167f28ee566bdecaf975c0979f4d09fecf91a9009ffe78523aef053a678134137b8b83604051610e9a9190612716565b60405180910390a250505050565b600454600160b01b900460ff161580610eca5750600454600160a81b900460ff165b80610edf57506002546001600160401b031642105b15610efd57604051636f312cbd60e01b815260040160405180910390fd5b600054825114610f2057604051631b9299d760e31b815260040160405180910390fd5b610f28611ed5565b33600090815260016020526040812081549091906001600160401b03811115610f6157634e487b7160e01b600052604160045260246000fd5b604051908082528060200260200182016040528015610f8a578160200160208202803683370190505b5090506000805b6000548110156110fa576000808281548110610fbd57634e487b7160e01b600052603260045260246000fd5b60009182526020808320600590920290910180546001600160a01b031683526001808901909252604083206002810154928101549194509291610fff916127d8565b9050600089858151811061102357634e487b7160e01b600052603260045260246000fd5b602002602001015190508082101561104e57604051634400c3cf60e01b815260040160405180910390fd5b8515801561105c5750600081115b1561106657600195505b80156110b657808360020160008282546110809190612781565b925050819055508084600401600082825461109b9190612781565b909155505083546110b6906001600160a01b03168a836120c5565b808786815181106110d757634e487b7160e01b600052603260045260246000fd5b6020026020010181815250505050505080806110f290612843565b915050610f91565b50806111195760405163f40c208960e01b815260040160405180910390fd5b336001600160a01b03167f28ee566bdecaf975c0979f4d09fecf91a9009ffe78523aef053a678134137b8b836040516111529190612716565b60405180910390a25050505050565b6001600160a01b03811660009081526001602052604081208154606092906001600160401b038111156111a457634e487b7160e01b600052604160045260246000fd5b6040519080825280602002602001820160405280156111cd578160200160208202803683370190505b50905060005b60005481101561126f5782600101600080838154811061120357634e487b7160e01b600052603260045260246000fd5b600091825260208083206005909202909101546001600160a01b03168352820192909252604001902060010154825183908390811061125257634e487b7160e01b600052603260045260246000fd5b60209081029190910101528061126781612843565b9150506111d3565b509392505050565b600454600160b01b900460ff1615806112995750600454600160a81b900460ff165b806112ae57506002546001600160401b031642105b806112cb5750600254600160401b90046001600160401b03164210155b156112e957604051634f9ebfb760e01b815260040160405180910390fd5b806113075760405163f69a94d360e01b815260040160405180910390fd5b60006006541180156113275750600654816005546113259190612781565b115b1561134557604051633c451bbb60e01b815260040160405180910390fd5b61134d611ed5565b336000908152600160205260408120805490918391839190611370908490612781565b9250508190555081600560008282546113899190612781565b90915550506003546113a6906001600160a01b0316333085611e64565b60405182815233907f9e71bc8eea02a63969f509818f2dafb9254532904319f9dbda79b67bd34a5f3d90602001610a10565b600454600160b01b900460ff1615806113fa5750600454600160a81b900460ff165b8061140f57506002546001600160401b031642105b1561142d57604051636f312cbd60e01b815260040160405180910390fd5b61143681610c61565b3360009081526001602052604090205461144f906108a4565b50565b6001600160a01b03811660009081526001602052604081208154606092906001600160401b0381111561149557634e487b7160e01b600052604160045260246000fd5b6040519080825280602002602001820160405280156114be578160200160208202803683370190505b50905060005b60005481101561126f5760008082815481106114f057634e487b7160e01b600052603260045260246000fd5b60009182526020808320600590920290910180546001600160a01b031683526001870190915260409091206002015484519192509084908490811061154557634e487b7160e01b600052603260045260246000fd5b6020908102919091010152508061155b81612843565b9150506114c4565b60008054606091906001600160401b0381111561159057634e487b7160e01b600052604160045260246000fd5b6040519080825280602002602001820160405280156115b9578160200160208202803683370190505b50905060005b60005481101561165357600081815481106115ea57634e487b7160e01b600052603260045260246000fd5b600091825260209091206005909102015482516001600160a01b039091169083908390811061162957634e487b7160e01b600052603260045260246000fd5b6001600160a01b03909216602092830291909101909101528061164b81612843565b9150506115bf565b50919050565b60008054606091906001600160401b0381111561168657634e487b7160e01b600052604160045260246000fd5b6040519080825280602002602001820160405280156116af578160200160208202803683370190505b50600454909150600160b01b900460ff1615806116d657506002546001600160401b031642105b1561172e5760005b60005481101561172757600082828151811061170a57634e487b7160e01b600052603260045260246000fd5b60209081029190910101528061171f81612843565b9150506116de565b5092915050565b6001600160a01b0383166000908152600160205260408120600254909190611767904290600160401b90046001600160401b03166120fa565b60025490915060009061178a90600160c01b90046001600160401b0316836127ef565b6001600160401b0316905060005b6000548110156118f25760008082815481106117c457634e487b7160e01b600052603260045260246000fd5b60009182526020808320600590920290910180546001600160a01b03168352600188019091526040909120600282015491925090841580159061180957506000600554115b156118645760025460055461182e91600160801b90046001600160401b0316906127b9565b6001840154600160701b9061184390886127b9565b61184d91906127b9565b6118579190612799565b6118619082612781565b90505b8154600090600160701b9061187990846127d8565b895461188591906127b9565b61188f9190612799565b9050826002015483600101546118a591906127d8565b6118af9082612781565b8986815181106118cf57634e487b7160e01b600052603260045260246000fd5b6020026020010181815250505050505080806118ea90612843565b915050611798565b509295945050505050565b600454600160b01b900460ff16158061191f5750600454600160a81b900460ff165b8061193457506002546001600160401b031642105b1561195257604051636f312cbd60e01b815260040160405180910390fd5b61195a611ed5565b600080546001600160401b0381111561198357634e487b7160e01b600052604160045260246000fd5b6040519080825280602002602001820160405280156119ac578160200160208202803683370190505b5090506000805b600054811015611b615760008082815481106119df57634e487b7160e01b600052603260045260246000fd5b600091825260209091206002546005909202019150611a1390600160701b90600160801b90046001600160401b03166127b9565b81600101548260030154611a2791906127b9565b611a319190612799565b816004016000828254611a449190612781565b909155505060006003820181905560048201546001830154611a6691906127d8565b82546040516370a0823160e01b81523060048201526001600160a01b03909116906370a082319060240160206040518083038186803b158015611aa857600080fd5b505afa158015611abc573d6000803e3d6000fd5b505050506040513d601f19601f82011682018060405250810190611ae091906125ba565b611aea91906127d8565b905083158015611afa5750600081115b15611b0457600193505b80858481518110611b2557634e487b7160e01b600052603260045260246000fd5b60209081029190910101526004548254611b4c916001600160a01b039182169116836120c5565b50508080611b5990612843565b9150506119b3565b5080611b805760405163f629908f60e01b815260040160405180910390fd5b7ff904fafa600a7e4e8039f3a5497d1b6016772e3060f87d3e40f911b315f00bd182604051611baf9190612716565b60405180910390a15050565b6004546001600160a01b03163314611be657604051632e6c18c960e11b815260040160405180910390fd5b600454600160b01b900460ff161580611c085750600454600160a81b900460ff165b80611c1e57506002546001600160401b03164210155b15611c3c5760405163259374a160e21b815260040160405180910390fd5b60005b600054811015611d2c576000808281548110611c6b57634e487b7160e01b600052603260045260246000fd5b6000918252602090912060048054600590930290910180546040516370a0823160e01b81523093810193909352909350611d19926001600160a01b03908116929116906370a082319060240160206040518083038186803b158015611ccf57600080fd5b505afa158015611ce3573d6000803e3d6000fd5b505050506040513d601f19601f82011682018060405250810190611d0791906125ba565b83546001600160a01b031691906120c5565b5080611d2481612843565b915050611c3f565b506004805460ff60a81b1916600160a81b1790556040517f1afb0ae590df277bcb3a37f88612725bf1f7df4755792b1548a7efe77985ff7790600090a1565b6004546001600160a01b03163314611d9657604051632e6c18c960e11b815260040160405180910390fd5b6001600160a01b038116611dbd576040516317b8ca8960e21b815260040160405180910390fd5b6004546040516001600160a01b038084169216907f8be0079c531659141344cd1fd0a4f28419497f9722a3daafe3b4186f6b6457e090600090a3600480546001600160a01b0319166001600160a01b0392909216919091179055565b60008181548110611e2957600080fd5b6000918252602090912060059091020180546001820154600283015460038401546004909401546001600160a01b0390931694509092909185565b6040516001600160a01b0380851660248301528316604482015260648101829052611ecf9085906323b872dd60e01b906084015b60408051601f198184030181529190526020810180516001600160e01b03166001600160e01b031990931692909217909152612112565b50505050565b600254600090611ef6904290600160401b90046001600160401b03166120fa565b600254909150600090611f1990600160c01b90046001600160401b0316836127ef565b3360009081526001602052604081206001600160401b039290921692505b600054811015612099576000808281548110611f6357634e487b7160e01b600052603260045260246000fd5b60009182526020808320600590920290910180546001600160a01b03168352600186019091526040909120909150841561202c57600554611fca57611fac600160701b866127b9565b826003016000828254611fbf9190612781565b9091555061202c9050565b600254600554611fea91600160801b90046001600160401b0316906127b9565b6001830154600160701b90611fff90886127b9565b61200991906127b9565b6120139190612799565b8260020160008282546120269190612781565b90915550505b80546002830154600091600160701b9161204691906127d8565b865461205291906127b9565b61205c9190612799565b9050801561207e57808260010160008282546120789190612781565b90915550505b5060029091015490558061209181612843565b915050611f37565b5050600280546001600160401b03909316600160c01b026001600160c01b039093169290921790915550565b6040516001600160a01b0383166024820152604481018290526120f590849063a9059cbb60e01b90606401611e98565b505050565b6000818310612109578161210b565b825b9392505050565b6000612167826040518060400160405280602081526020017f5361666545524332303a206c6f772d6c6576656c2063616c6c206661696c6564815250856001600160a01b03166121e99092919063ffffffff16565b8051909150156120f557808060200190518101906121859190612586565b6120f55760405162461bcd60e51b815260206004820152602a60248201527f5361666545524332303a204552433230206f7065726174696f6e20646964206e6044820152691bdd081cdd58d8d9595960b21b60648201526084015b60405180910390fd5b60606121f88484600085612200565b949350505050565b6060824710156122615760405162461bcd60e51b815260206004820152602660248201527f416464726573733a20696e73756666696369656e742062616c616e636520666f6044820152651c8818d85b1b60d21b60648201526084016121e0565b843b6122af5760405162461bcd60e51b815260206004820152601d60248201527f416464726573733a2063616c6c20746f206e6f6e2d636f6e747261637400000060448201526064016121e0565b600080866001600160a01b031685876040516122cb9190612606565b60006040518083038185875af1925050503d8060008114612308576040519150601f19603f3d011682016040523d82523d6000602084013e61230d565b606091505b509150915061231d828286612328565b979650505050505050565b6060831561233757508161210b565b8251156123475782518084602001fd5b8160405162461bcd60e51b81526004016121e0919061274e565b80356001600160a01b038116811461237857600080fd5b919050565b60008083601f84011261238e578081fd5b5081356001600160401b038111156123a4578182fd5b6020830191508360208260051b85010111156123bf57600080fd5b9250929050565b80356001600160401b038116811461237857600080fd5b6000602082840312156123ee578081fd5b61210b82612361565b600080600080600080600080600060e08a8c031215612414578485fd5b89356001600160401b038082111561242a578687fd5b6124368d838e0161237d565b909b50995089915061244a60208d01612361565b985060408c013591508082111561245f578687fd5b5061246c8c828d0161237d565b909750955061247f905060608b016123c6565b935061248d60808b016123c6565b925060a08a013561249d816128ae565b8092505060c08a013590509295985092959850929598565b600080604083850312156124c7578182fd5b82356001600160401b03808211156124dd578384fd5b818501915085601f8301126124f0578384fd5b813560208282111561250457612504612898565b8160051b604051601f19603f8301168101818110868211171561252957612529612898565b604052838152828101945085830182870184018b1015612547578889fd5b8896505b8487101561256957803586526001969096019594830194830161254b565b5096506125799050878201612361565b9450505050509250929050565b600060208284031215612597578081fd5b815161210b816128ae565b6000602082840312156125b3578081fd5b5035919050565b6000602082840312156125cb578081fd5b5051919050565b81835260006001600160fb1b038311156125ea578081fd5b8260051b80836020870137939093016020019283525090919050565b60008251612618818460208701612817565b9190910192915050565b60e0808252810189905260008a6101008301825b8c811015612664576001600160a01b0361264f84612361565b16825260209283019290910190600101612636565b506001600160a01b038b1660208501528381036040850152612687818a8c6125d2565b925050506126a060608301876001600160401b03169052565b6001600160401b0394909416608082015291151560a083015260c0909101529695505050505050565b6020808252825182820181905260009190848201906040850190845b8181101561270a5783516001600160a01b0316835292840192918401916001016126e5565b50909695505050505050565b6020808252825182820181905260009190848201906040850190845b8181101561270a57835183529284019291840191600101612732565b602081526000825180602084015261276d816040850160208701612817565b601f01601f19169190910160400192915050565b6000821982111561279457612794612882565b500190565b6000826127b457634e487b7160e01b81526012600452602481fd5b500490565b60008160001904831182151516156127d3576127d3612882565b500290565b6000828210156127ea576127ea612882565b500390565b60006001600160401b038381169083168181101561280f5761280f612882565b039392505050565b60005b8381101561283257818101518382015260200161281a565b83811115611ecf5750506000910152565b600060001982141561285757612857612882565b5060010190565b600063ffffffff8083168181141561287857612878612882565b6001019392505050565b634e487b7160e01b600052601160045260246000fd5b634e487b7160e01b600052604160045260246000fd5b801515811461144f57600080fdfea2646970667358221220bb9d3ba1bcef2d7ce32454fbc5ba41211e8813e171dbc49896fdab2cf49a478b64736f6c63430008040033",
  "linkReferences": {},
  "deployedLinkReferences": {}
}